{
  "contractName": "ThreeCards",
  "abi": [
    {
      "inputs": [
        {
          "internalType": "contract IERC20",
          "name": "_token",
          "type": "address"
        },
        {
          "internalType": "uint256",
          "name": "_minBet",
          "type": "uint256"
        },
        {
          "internalType": "uint256",
          "name": "_maxBet",
          "type": "uint256"
        }
      ],
      "stateMutability": "nonpayable",
      "type": "constructor"
    },
    {
      "anonymous": false,
      "inputs": [
        {
          "indexed": true,
          "internalType": "address",
          "name": "previousOwner",
          "type": "address"
        },
        {
          "indexed": true,
          "internalType": "address",
          "name": "newOwner",
          "type": "address"
        }
      ],
      "name": "OwnershipTransferred",
      "type": "event"
    },
    {
      "inputs": [],
      "name": "maxBet",
      "outputs": [
        {
          "internalType": "uint256",
          "name": "",
          "type": "uint256"
        }
      ],
      "stateMutability": "view",
      "type": "function"
    },
    {
      "inputs": [],
      "name": "minBet",
      "outputs": [
        {
          "internalType": "uint256",
          "name": "",
          "type": "uint256"
        }
      ],
      "stateMutability": "view",
      "type": "function"
    },
    {
      "inputs": [],
      "name": "owner",
      "outputs": [
        {
          "internalType": "address",
          "name": "",
          "type": "address"
        }
      ],
      "stateMutability": "view",
      "type": "function"
    },
    {
      "inputs": [],
      "name": "pot",
      "outputs": [
        {
          "internalType": "uint256",
          "name": "",
          "type": "uint256"
        }
      ],
      "stateMutability": "view",
      "type": "function"
    },
    {
      "inputs": [],
      "name": "renounceOwnership",
      "outputs": [],
      "stateMutability": "nonpayable",
      "type": "function"
    },
    {
      "inputs": [],
      "name": "token",
      "outputs": [
        {
          "internalType": "contract IERC20",
          "name": "",
          "type": "address"
        }
      ],
      "stateMutability": "view",
      "type": "function"
    },
    {
      "inputs": [
        {
          "internalType": "address",
          "name": "newOwner",
          "type": "address"
        }
      ],
      "name": "transferOwnership",
      "outputs": [],
      "stateMutability": "nonpayable",
      "type": "function"
    },
    {
      "inputs": [
        {
          "internalType": "uint256",
          "name": "_amount",
          "type": "uint256"
        }
      ],
      "name": "buyIn",
      "outputs": [],
      "stateMutability": "nonpayable",
      "type": "function"
    },
    {
      "inputs": [],
      "name": "getBet",
      "outputs": [
        {
          "components": [
            {
              "internalType": "uint256[]",
              "name": "cards",
              "type": "uint256[]"
            },
            {
              "internalType": "uint256",
              "name": "betAmount",
              "type": "uint256"
            }
          ],
          "internalType": "struct Holder",
          "name": "",
          "type": "tuple"
        }
      ],
      "stateMutability": "view",
      "type": "function"
    },
    {
      "inputs": [],
      "name": "showOff",
      "outputs": [],
      "stateMutability": "nonpayable",
      "type": "function"
    },
    {
      "inputs": [],
      "name": "withdraw",
      "outputs": [],
      "stateMutability": "nonpayable",
      "type": "function"
    }
  ],
  "bytecode": "0x6080604052600060025560006007553480156200001b57600080fd5b5060405162001729380380620017298339818101604052810190620000419190620002aa565b62000061620000556200012560201b60201c565b6200012d60201b60201c565b82600160006101000a81548173ffffffffffffffffffffffffffffffffffffffff021916908373ffffffffffffffffffffffffffffffffffffffff160217905550816003819055508060048190555073__TableLib______________________________63bebeeae460056040518263ffffffff1660e01b8152600401620000ea91906200030d565b60006040518083038186803b1580156200010357600080fd5b505af415801562000118573d6000803e3d6000fd5b505050505050506200032a565b600033905090565b60008060009054906101000a900473ffffffffffffffffffffffffffffffffffffffff169050816000806101000a81548173ffffffffffffffffffffffffffffffffffffffff021916908373ffffffffffffffffffffffffffffffffffffffff1602179055508173ffffffffffffffffffffffffffffffffffffffff168173ffffffffffffffffffffffffffffffffffffffff167f8be0079c531659141344cd1fd0a4f28419497f9722a3daafe3b4186f6b6457e060405160405180910390a35050565b600080fd5b600073ffffffffffffffffffffffffffffffffffffffff82169050919050565b60006200022382620001f6565b9050919050565b6000620002378262000216565b9050919050565b62000249816200022a565b81146200025557600080fd5b50565b60008151905062000269816200023e565b92915050565b6000819050919050565b62000284816200026f565b81146200029057600080fd5b50565b600081519050620002a48162000279565b92915050565b600080600060608486031215620002c657620002c5620001f1565b5b6000620002d68682870162000258565b9350506020620002e98682870162000293565b9250506040620002fc8682870162000293565b9150509250925092565b8082525050565b600060208201905062000324600083018462000306565b92915050565b6113ef806200033a6000396000f3fe608060405234801561001057600080fd5b50600436106100a95760003560e01c80638da5cb5b116100715780638da5cb5b1461011c5780639619367d1461013a578063b287d8ca14610158578063bcbd7c9614610174578063f2fde38b1461017e578063fc0c546a1461019a576100a9565b806320835e8c146100ae5780632e5b2168146100cc5780633ccfd60b146100ea5780634ba2363a146100f4578063715018a614610112575b600080fd5b6100b66101b8565b6040516100c39190610ca2565b60405180910390f35b6100d4610271565b6040516100e19190610cd3565b60405180910390f35b6100f2610277565b005b6100fc6103ac565b6040516101099190610cd3565b60405180910390f35b61011a6103b2565b005b6101246103c6565b6040516101319190610d2f565b60405180910390f35b6101426103ef565b60405161014f9190610cd3565b60405180910390f35b610172600480360381019061016d9190610d7b565b6103f5565b005b61017c610759565b005b61019860048036038101906101939190610dd4565b610990565b005b6101a2610a13565b6040516101af9190610e60565b60405180910390f35b6101c0610b83565b600960003373ffffffffffffffffffffffffffffffffffffffff1673ffffffffffffffffffffffffffffffffffffffff1681526020019081526020016000206040518060400160405290816000820180548060200260200160405190810160405280929190818152602001828054801561025957602002820191906000526020600020905b815481526020019060010190808311610245575b50505050508152602001600182015481525050905090565b60045481565b600660009054906101000a900473ffffffffffffffffffffffffffffffffffffffff1673ffffffffffffffffffffffffffffffffffffffff163373ffffffffffffffffffffffffffffffffffffffff1614610307576040517f08c379a00000000000000000000000000000000000000000000000000000000081526004016102fe90610ed8565b60405180910390fd5b600160009054906101000a900473ffffffffffffffffffffffffffffffffffffffff1673ffffffffffffffffffffffffffffffffffffffff1663a9059cbb336002546040518363ffffffff1660e01b8152600401610366929190610ef8565b6020604051808303816000875af1158015610385573d6000803e3d6000fd5b505050506040513d601f19601f820116820180604052508101906103a99190610f59565b50565b60025481565b6103ba610a39565b6103c46000610ab7565b565b60008060009054906101000a900473ffffffffffffffffffffffffffffffffffffffff16905090565b60035481565b80600073ffffffffffffffffffffffffffffffffffffffff16600660009054906101000a900473ffffffffffffffffffffffffffffffffffffffff1673ffffffffffffffffffffffffffffffffffffffff1614610487576040517f08c379a000000000000000000000000000000000000000000000000000000000815260040161047e90610fd2565b60405180910390fd5b6000600960003373ffffffffffffffffffffffffffffffffffffffff1673ffffffffffffffffffffffffffffffffffffffff168152602001908152602001600020600101541461050c576040517f08c379a00000000000000000000000000000000000000000000000000000000081526004016105039061103e565b60405180910390fd5b600354811015801561052057506004548111155b61055f576040517f08c379a0000000000000000000000000000000000000000000000000000000008152600401610556906110aa565b60405180910390fd5b600160009054906101000a900473ffffffffffffffffffffffffffffffffffffffff1673ffffffffffffffffffffffffffffffffffffffff166323b872dd3330856040518463ffffffff1660e01b81526004016105be939291906110ca565b6020604051808303816000875af11580156105dd573d6000803e3d6000fd5b505050506040513d601f19601f820116820180604052508101906106019190610f59565b506000600960003373ffffffffffffffffffffffffffffffffffffffff1673ffffffffffffffffffffffffffffffffffffffff1681526020019081526020016000209050828160010160008282546106599190611130565b9250508190555073__TableLib______________________________63978e129a60058360036040518463ffffffff1660e01b815260040161069d939291906111ad565b60006040518083038186803b1580156106b557600080fd5b505af41580156106c9573d6000803e3d6000fd5b505050503360086000600754815260200190815260200160002060006101000a81548173ffffffffffffffffffffffffffffffffffffffff021916908373ffffffffffffffffffffffffffffffffffffffff1602179055506001600760008282546107349190611130565b92505081905550826002600082825461074d9190611130565b92505081905550505050565b610761610a39565b60008080600090505b60075481101561094a576000600960006008600085815260200190815260200160002060009054906101000a900473ffffffffffffffffffffffffffffffffffffffff1673ffffffffffffffffffffffffffffffffffffffff1673ffffffffffffffffffffffffffffffffffffffff1681526020019081526020016000206040518060400160405290816000820180548060200260200160405190810160405280929190818152602001828054801561084257602002820191906000526020600020905b81548152602001906001019080831161082e575b5050505050815260200160018201548152505090506000805b8260000151518110156108e357600a83600001518281518110610881576108806111e4565b5b602002602001015111156108a357600a8261089c9190611130565b91506108d0565b826000015181815181106108ba576108b96111e4565b5b6020026020010151826108cd9190611130565b91505b80806108db90611213565b91505061085b565b50600a816108f1919061128a565b905084811115610935578094506008600084815260200190815260200160002060009054906101000a900473ffffffffffffffffffffffffffffffffffffffff1693505b5050808061094290611213565b91505061076a565b5080600660006101000a81548173ffffffffffffffffffffffffffffffffffffffff021916908373ffffffffffffffffffffffffffffffffffffffff1602179055505050565b610998610a39565b600073ffffffffffffffffffffffffffffffffffffffff168173ffffffffffffffffffffffffffffffffffffffff1603610a07576040517f08c379a00000000000000000000000000000000000000000000000000000000081526004016109fe9061132d565b60405180910390fd5b610a1081610ab7565b50565b600160009054906101000a900473ffffffffffffffffffffffffffffffffffffffff1681565b610a41610b7b565b73ffffffffffffffffffffffffffffffffffffffff16610a5f6103c6565b73ffffffffffffffffffffffffffffffffffffffff1614610ab5576040517f08c379a0000000000000000000000000000000000000000000000000000000008152600401610aac90611399565b60405180910390fd5b565b60008060009054906101000a900473ffffffffffffffffffffffffffffffffffffffff169050816000806101000a81548173ffffffffffffffffffffffffffffffffffffffff021916908373ffffffffffffffffffffffffffffffffffffffff1602179055508173ffffffffffffffffffffffffffffffffffffffff168173ffffffffffffffffffffffffffffffffffffffff167f8be0079c531659141344cd1fd0a4f28419497f9722a3daafe3b4186f6b6457e060405160405180910390a35050565b600033905090565b604051806040016040528060608152602001600081525090565b600081519050919050565b600082825260208201905092915050565b6000819050602082019050919050565b6000819050919050565b610bdc81610bc9565b82525050565b6000610bee8383610bd3565b60208301905092915050565b6000602082019050919050565b6000610c1282610b9d565b610c1c8185610ba8565b9350610c2783610bb9565b8060005b83811015610c58578151610c3f8882610be2565b9750610c4a83610bfa565b925050600181019050610c2b565b5085935050505092915050565b60006040830160008301518482036000860152610c828282610c07565b9150506020830151610c976020860182610bd3565b508091505092915050565b60006020820190508181036000830152610cbc8184610c65565b905092915050565b610ccd81610bc9565b82525050565b6000602082019050610ce86000830184610cc4565b92915050565b600073ffffffffffffffffffffffffffffffffffffffff82169050919050565b6000610d1982610cee565b9050919050565b610d2981610d0e565b82525050565b6000602082019050610d446000830184610d20565b92915050565b600080fd5b610d5881610bc9565b8114610d6357600080fd5b50565b600081359050610d7581610d4f565b92915050565b600060208284031215610d9157610d90610d4a565b5b6000610d9f84828501610d66565b91505092915050565b610db181610d0e565b8114610dbc57600080fd5b50565b600081359050610dce81610da8565b92915050565b600060208284031215610dea57610de9610d4a565b5b6000610df884828501610dbf565b91505092915050565b6000819050919050565b6000610e26610e21610e1c84610cee565b610e01565b610cee565b9050919050565b6000610e3882610e0b565b9050919050565b6000610e4a82610e2d565b9050919050565b610e5a81610e3f565b82525050565b6000602082019050610e756000830184610e51565b92915050565b600082825260208201905092915050565b7f796f7520617265206c6f73657200000000000000000000000000000000000000600082015250565b6000610ec2600d83610e7b565b9150610ecd82610e8c565b602082019050919050565b60006020820190508181036000830152610ef181610eb5565b9050919050565b6000604082019050610f0d6000830185610d20565b610f1a6020830184610cc4565b9392505050565b60008115159050919050565b610f3681610f21565b8114610f4157600080fd5b50565b600081519050610f5381610f2d565b92915050565b600060208284031215610f6f57610f6e610d4a565b5b6000610f7d84828501610f44565b91505092915050565b7f67616d65206f7665720000000000000000000000000000000000000000000000600082015250565b6000610fbc600983610e7b565b9150610fc782610f86565b602082019050919050565b60006020820190508181036000830152610feb81610faf565b9050919050565b7f616c726561647920626574000000000000000000000000000000000000000000600082015250565b6000611028600b83610e7b565b915061103382610ff2565b602082019050919050565b600060208201905081810360008301526110578161101b565b9050919050565b7f62657420616d6f756e74206d75737420696e2072616e67650000000000000000600082015250565b6000611094601883610e7b565b915061109f8261105e565b602082019050919050565b600060208201905081810360008301526110c381611087565b9050919050565b60006060820190506110df6000830186610d20565b6110ec6020830185610d20565b6110f96040830184610cc4565b949350505050565b7f4e487b7100000000000000000000000000000000000000000000000000000000600052601160045260246000fd5b600061113b82610bc9565b915061114683610bc9565b925082820190508082111561115e5761115d611101565b5b92915050565b8082525050565b8082525050565b6000819050919050565b600061119761119261118d84611172565b610e01565b610bc9565b9050919050565b6111a78161117c565b82525050565b60006060820190506111c26000830186611164565b6111cf602083018561116b565b6111dc604083018461119e565b949350505050565b7f4e487b7100000000000000000000000000000000000000000000000000000000600052603260045260246000fd5b600061121e82610bc9565b91507fffffffffffffffffffffffffffffffffffffffffffffffffffffffffffffffff82036112505761124f611101565b5b600182019050919050565b7f4e487b7100000000000000000000000000000000000000000000000000000000600052601260045260246000fd5b600061129582610bc9565b91506112a083610bc9565b9250826112b0576112af61125b565b5b828206905092915050565b7f4f776e61626c653a206e6577206f776e657220697320746865207a65726f206160008201527f6464726573730000000000000000000000000000000000000000000000000000602082015250565b6000611317602683610e7b565b9150611322826112bb565b604082019050919050565b600060208201905081810360008301526113468161130a565b9050919050565b7f4f776e61626c653a2063616c6c6572206973206e6f7420746865206f776e6572600082015250565b6000611383602083610e7b565b915061138e8261134d565b602082019050919050565b600060208201905081810360008301526113b281611376565b905091905056fea26469706673582212203f0fe0ae63e9a8745ece5a253de4a23a9515b85c0141766e21be9203cb48b22164736f6c63430008130033",
  "immutableReferences": {},
  "source": "// SPDX-License-Identifier: MIT\npragma solidity ^0.8.19;\n\nimport \"@openzeppelin/contracts/token/ERC20/IERC20.sol\";\nimport \"@openzeppelin/contracts/access/Ownable.sol\";\nimport \"./TableLib.sol\";\n\ncontract ThreeCards is Ownable {\n    IERC20 public token;\n\n    uint256 public pot = 0;\n    uint256 public minBet;\n    uint256 public maxBet;\n\n    uint256[] private cards;\n\n    address winner;\n\n    uint256 private _idx = 0;\n    mapping(uint256 => address) private index;\n    mapping(address => Holder) private addressHoldersMap;\n\n    constructor(IERC20 _token, uint256 _minBet, uint256 _maxBet) {\n        token = _token;\n        minBet = _minBet;\n        maxBet = _maxBet;\n        TableLib.freshUnbox(cards);\n    }\n\n    modifier canBet(uint256 _amount) {\n        require(winner == address(0), \"game over\");\n        require(addressHoldersMap[msg.sender].betAmount == 0, \"already bet\");\n        require(\n            _amount >= minBet && _amount <= maxBet,\n            \"bet amount must in range\"\n        );\n        _;\n    }\n\n    function buyIn(uint256 _amount) public canBet(_amount) {\n        token.transferFrom(msg.sender, address(this), _amount);\n        Holder storage holder = addressHoldersMap[msg.sender];\n        /** Add data */\n        holder.betAmount += _amount;\n        TableLib.pickCards(cards, holder, 3);\n        /** Indexing */\n        index[_idx] = msg.sender;\n        _idx += 1;\n        /** Increase pot amount */\n        pot += _amount;\n    }\n\n    function getBet() public view returns (Holder memory) {\n        return addressHoldersMap[msg.sender];\n    }\n\n    function showOff() public onlyOwner {\n        uint256 max = 0;\n        address w;\n        for (uint256 i = 0; i < _idx; i++) {\n            Holder memory holder = addressHoldersMap[index[i]];\n            uint256 sum = 0;\n            for (uint256 j = 0; j < holder.cards.length; j++) {\n                if (holder.cards[j] > 10) {\n                    sum += 10;\n                } else {\n                    sum += holder.cards[j];\n                }\n            }\n            sum %= 10;\n            if (sum > max) {\n                max = sum;\n                w = index[i];\n            }\n        }\n        winner = w;\n    }\n\n    modifier canWithdraw() {\n        require(msg.sender == winner, \"you are loser\");\n        _;\n    }\n\n    function withdraw() public canWithdraw {\n        token.transfer(msg.sender, pot);\n    }\n}\n",
  "sourcePath": "/Users/account/levanthanh-ptit/eth-truffle-practice/contracts/ThreeCards.sol",
  "compiler": {
    "name": "solc",
    "version": "0.8.19+commit.7dd6d404.Emscripten.clang"
  },
  "schemaVersion": "3.4.12",
  "updatedAt": "2023-03-14T06:51:52.588Z",
  "devdoc": {
    "kind": "dev",
    "methods": {
      "owner()": {
        "details": "Returns the address of the current owner."
      },
      "renounceOwnership()": {
        "details": "Leaves the contract without owner. It will not be possible to call `onlyOwner` functions anymore. Can only be called by the current owner. NOTE: Renouncing ownership will leave the contract without an owner, thereby removing any functionality that is only available to the owner."
      },
      "transferOwnership(address)": {
        "details": "Transfers ownership of the contract to a new account (`newOwner`). Can only be called by the current owner."
      }
    },
    "version": 1
  },
  "userdoc": {
    "kind": "user",
    "methods": {},
    "version": 1
  }
}