{
  "contractName": "ThreeCards",
  "abi": [
    {
      "inputs": [
        {
          "internalType": "contract IERC20",
          "name": "_token",
          "type": "address"
        },
        {
          "internalType": "uint256",
          "name": "_minBet",
          "type": "uint256"
        },
        {
          "internalType": "uint256",
          "name": "_maxBet",
          "type": "uint256"
        }
      ],
      "stateMutability": "nonpayable",
      "type": "constructor"
    },
    {
      "anonymous": false,
      "inputs": [
        {
          "indexed": true,
          "internalType": "address",
          "name": "previousOwner",
          "type": "address"
        },
        {
          "indexed": true,
          "internalType": "address",
          "name": "newOwner",
          "type": "address"
        }
      ],
      "name": "OwnershipTransferred",
      "type": "event"
    },
    {
      "inputs": [],
      "name": "maxBet",
      "outputs": [
        {
          "internalType": "uint256",
          "name": "",
          "type": "uint256"
        }
      ],
      "stateMutability": "view",
      "type": "function"
    },
    {
      "inputs": [],
      "name": "minBet",
      "outputs": [
        {
          "internalType": "uint256",
          "name": "",
          "type": "uint256"
        }
      ],
      "stateMutability": "view",
      "type": "function"
    },
    {
      "inputs": [],
      "name": "owner",
      "outputs": [
        {
          "internalType": "address",
          "name": "",
          "type": "address"
        }
      ],
      "stateMutability": "view",
      "type": "function"
    },
    {
      "inputs": [],
      "name": "pot",
      "outputs": [
        {
          "internalType": "uint256",
          "name": "",
          "type": "uint256"
        }
      ],
      "stateMutability": "view",
      "type": "function"
    },
    {
      "inputs": [],
      "name": "renounceOwnership",
      "outputs": [],
      "stateMutability": "nonpayable",
      "type": "function"
    },
    {
      "inputs": [],
      "name": "token",
      "outputs": [
        {
          "internalType": "contract IERC20",
          "name": "",
          "type": "address"
        }
      ],
      "stateMutability": "view",
      "type": "function"
    },
    {
      "inputs": [
        {
          "internalType": "address",
          "name": "newOwner",
          "type": "address"
        }
      ],
      "name": "transferOwnership",
      "outputs": [],
      "stateMutability": "nonpayable",
      "type": "function"
    },
    {
      "inputs": [
        {
          "internalType": "uint256",
          "name": "_amount",
          "type": "uint256"
        }
      ],
      "name": "buyIn",
      "outputs": [],
      "stateMutability": "nonpayable",
      "type": "function"
    },
    {
      "inputs": [],
      "name": "getBet",
      "outputs": [
        {
          "components": [
            {
              "internalType": "uint256[]",
              "name": "cards",
              "type": "uint256[]"
            },
            {
              "internalType": "uint256",
              "name": "betAmount",
              "type": "uint256"
            }
          ],
          "internalType": "struct Holder",
          "name": "",
          "type": "tuple"
        }
      ],
      "stateMutability": "view",
      "type": "function"
    },
    {
      "inputs": [],
      "name": "showOff",
      "outputs": [],
      "stateMutability": "nonpayable",
      "type": "function"
    },
    {
      "inputs": [],
      "name": "withdraw",
      "outputs": [],
      "stateMutability": "nonpayable",
      "type": "function"
    }
  ],
  "bytecode": "0x608060405260006002553480156200001657600080fd5b50604051620019d8380380620019d883398181016040528101906200003c9190620002ce565b6200005c62000050620000c660201b60201c565b620000ce60201b60201c565b82600160006101000a81548173ffffffffffffffffffffffffffffffffffffffff021916908373ffffffffffffffffffffffffffffffffffffffff1602179055508160038190555080600481905550620000bd60056200019260201b60201c565b50505062000448565b600033905090565b60008060009054906101000a900473ffffffffffffffffffffffffffffffffffffffff169050816000806101000a81548173ffffffffffffffffffffffffffffffffffffffff021916908373ffffffffffffffffffffffffffffffffffffffff1602179055508173ffffffffffffffffffffffffffffffffffffffff168173ffffffffffffffffffffffffffffffffffffffff167f8be0079c531659141344cd1fd0a4f28419497f9722a3daafe3b4186f6b6457e060405160405180910390a35050565b6000818054905014620001a457600080fd5b60005b6034811015620002115760006001600d83620001c4919062000359565b620001d09190620003c0565b9050828190806001815401808255809150506001900390600052602060002001600090919091909150555080806200020890620003fb565b915050620001a7565b5050565b600080fd5b600073ffffffffffffffffffffffffffffffffffffffff82169050919050565b600062000247826200021a565b9050919050565b60006200025b826200023a565b9050919050565b6200026d816200024e565b81146200027957600080fd5b50565b6000815190506200028d8162000262565b92915050565b6000819050919050565b620002a88162000293565b8114620002b457600080fd5b50565b600081519050620002c8816200029d565b92915050565b600080600060608486031215620002ea57620002e962000215565b5b6000620002fa868287016200027c565b93505060206200030d86828701620002b7565b92505060406200032086828701620002b7565b9150509250925092565b7f4e487b7100000000000000000000000000000000000000000000000000000000600052601260045260246000fd5b6000620003668262000293565b9150620003738362000293565b9250826200038657620003856200032a565b5b828206905092915050565b7f4e487b7100000000000000000000000000000000000000000000000000000000600052601160045260246000fd5b6000620003cd8262000293565b9150620003da8362000293565b9250828201905080821115620003f557620003f462000391565b5b92915050565b6000620004088262000293565b91507fffffffffffffffffffffffffffffffffffffffffffffffffffffffffffffffff82036200043d576200043c62000391565b5b600182019050919050565b61158080620004586000396000f3fe608060405234801561001057600080fd5b50600436106100a95760003560e01c80638da5cb5b116100715780638da5cb5b1461011c5780639619367d1461013a578063b287d8ca14610158578063bcbd7c9614610174578063f2fde38b1461017e578063fc0c546a1461019a576100a9565b806320835e8c146100ae5780632e5b2168146100cc5780633ccfd60b146100ea5780634ba2363a146100f4578063715018a614610112575b600080fd5b6100b66101b8565b6040516100c39190610dd8565b60405180910390f35b6100d4610271565b6040516100e19190610e09565b60405180910390f35b6100f2610277565b005b6100fc6103ac565b6040516101099190610e09565b60405180910390f35b61011a6103b2565b005b6101246103c6565b6040516101319190610e65565b60405180910390f35b6101426103ef565b60405161014f9190610e09565b60405180910390f35b610172600480360381019061016d9190610eb1565b6103f5565b005b61017c6106f0565b005b61019860048036038101906101939190610f0a565b61092e565b005b6101a26109b1565b6040516101af9190610f96565b60405180910390f35b6101c0610cb9565b600960003373ffffffffffffffffffffffffffffffffffffffff1673ffffffffffffffffffffffffffffffffffffffff1681526020019081526020016000206040518060400160405290816000820180548060200260200160405190810160405280929190818152602001828054801561025957602002820191906000526020600020905b815481526020019060010190808311610245575b50505050508152602001600182015481525050905090565b60045481565b600660009054906101000a900473ffffffffffffffffffffffffffffffffffffffff1673ffffffffffffffffffffffffffffffffffffffff163373ffffffffffffffffffffffffffffffffffffffff1614610307576040517f08c379a00000000000000000000000000000000000000000000000000000000081526004016102fe9061100e565b60405180910390fd5b600160009054906101000a900473ffffffffffffffffffffffffffffffffffffffff1673ffffffffffffffffffffffffffffffffffffffff1663a9059cbb336002546040518363ffffffff1660e01b815260040161036692919061102e565b6020604051808303816000875af1158015610385573d6000803e3d6000fd5b505050506040513d601f19601f820116820180604052508101906103a9919061108f565b50565b60025481565b6103ba6109d7565b6103c46000610a55565b565b60008060009054906101000a900473ffffffffffffffffffffffffffffffffffffffff16905090565b60035481565b80600073ffffffffffffffffffffffffffffffffffffffff16600660009054906101000a900473ffffffffffffffffffffffffffffffffffffffff1673ffffffffffffffffffffffffffffffffffffffff1614610487576040517f08c379a000000000000000000000000000000000000000000000000000000000815260040161047e90611108565b60405180910390fd5b6000600960003373ffffffffffffffffffffffffffffffffffffffff1673ffffffffffffffffffffffffffffffffffffffff168152602001908152602001600020600101541461050c576040517f08c379a000000000000000000000000000000000000000000000000000000000815260040161050390611174565b60405180910390fd5b600354811015801561052057506004548111155b61055f576040517f08c379a0000000000000000000000000000000000000000000000000000000008152600401610556906111e0565b60405180910390fd5b600160009054906101000a900473ffffffffffffffffffffffffffffffffffffffff1673ffffffffffffffffffffffffffffffffffffffff166323b872dd3330856040518463ffffffff1660e01b81526004016105be93929190611200565b6020604051808303816000875af11580156105dd573d6000803e3d6000fd5b505050506040513d601f19601f82011682018060405250810190610601919061108f565b506000600960003373ffffffffffffffffffffffffffffffffffffffff1673ffffffffffffffffffffffffffffffffffffffff1681526020019081526020016000209050828160010160008282546106599190611266565b9250508190555061066d6005826003610b19565b336008600061067c6007610c0d565b815260200190815260200160002060006101000a81548173ffffffffffffffffffffffffffffffffffffffff021916908373ffffffffffffffffffffffffffffffffffffffff1602179055506106d26007610c1b565b82600260008282546106e49190611266565b92505081905550505050565b6106f86109d7565b60008080600090505b61070b6007610c0d565b8110156108e8576000600960006008600085815260200190815260200160002060009054906101000a900473ffffffffffffffffffffffffffffffffffffffff1673ffffffffffffffffffffffffffffffffffffffff1673ffffffffffffffffffffffffffffffffffffffff168152602001908152602001600020604051806040016040529081600082018054806020026020016040519081016040528092919081815260200182805480156107e057602002820191906000526020600020905b8154815260200190600101908083116107cc575b5050505050815260200160018201548152505090506000805b82600001515181101561088157600a8360000151828151811061081f5761081e61129a565b5b6020026020010151111561084157600a8261083a9190611266565b915061086e565b826000015181815181106108585761085761129a565b5b60200260200101518261086b9190611266565b91505b8080610879906112c9565b9150506107f9565b50600a8161088f9190611340565b9050848111156108d3578094506008600084815260200190815260200160002060009054906101000a900473ffffffffffffffffffffffffffffffffffffffff1693505b505080806108e0906112c9565b915050610701565b5080600660006101000a81548173ffffffffffffffffffffffffffffffffffffffff021916908373ffffffffffffffffffffffffffffffffffffffff1602179055505050565b6109366109d7565b600073ffffffffffffffffffffffffffffffffffffffff168173ffffffffffffffffffffffffffffffffffffffff16036109a5576040517f08c379a000000000000000000000000000000000000000000000000000000000815260040161099c906113e3565b60405180910390fd5b6109ae81610a55565b50565b600160009054906101000a900473ffffffffffffffffffffffffffffffffffffffff1681565b6109df610c31565b73ffffffffffffffffffffffffffffffffffffffff166109fd6103c6565b73ffffffffffffffffffffffffffffffffffffffff1614610a53576040517f08c379a0000000000000000000000000000000000000000000000000000000008152600401610a4a9061144f565b60405180910390fd5b565b60008060009054906101000a900473ffffffffffffffffffffffffffffffffffffffff169050816000806101000a81548173ffffffffffffffffffffffffffffffffffffffff021916908373ffffffffffffffffffffffffffffffffffffffff1602179055508173ffffffffffffffffffffffffffffffffffffffff168173ffffffffffffffffffffffffffffffffffffffff167f8be0079c531659141344cd1fd0a4f28419497f9722a3daafe3b4186f6b6457e060405160405180910390a35050565b60005b81811015610c07576000610b338580549050610c39565b905083600001858281548110610b4c57610b4b61129a565b5b906000526020600020015490806001815401808255809150506001900390600052602060002001600090919091909150558460018680549050610b8f919061146f565b81548110610ba057610b9f61129a565b5b9060005260206000200154858281548110610bbe57610bbd61129a565b5b906000526020600020018190555084805480610bdd57610bdc6114a3565b5b60019003818190600052602060002001600090559055508080610bff906112c9565b915050610b1c565b50505050565b600081600001549050919050565b6001816000016000828254019250508190555050565b600033905090565b6000806064434442610c4b9190611266565b610c559190611266565b610c5f9190611340565b9050600183610c6e9190611266565b600143610c7b919061146f565b4082604051602001610c8e92919061151e565b6040516020818303038152906040528051906020012060001c610cb19190611340565b915050919050565b604051806040016040528060608152602001600081525090565b600081519050919050565b600082825260208201905092915050565b6000819050602082019050919050565b6000819050919050565b610d1281610cff565b82525050565b6000610d248383610d09565b60208301905092915050565b6000602082019050919050565b6000610d4882610cd3565b610d528185610cde565b9350610d5d83610cef565b8060005b83811015610d8e578151610d758882610d18565b9750610d8083610d30565b925050600181019050610d61565b5085935050505092915050565b60006040830160008301518482036000860152610db88282610d3d565b9150506020830151610dcd6020860182610d09565b508091505092915050565b60006020820190508181036000830152610df28184610d9b565b905092915050565b610e0381610cff565b82525050565b6000602082019050610e1e6000830184610dfa565b92915050565b600073ffffffffffffffffffffffffffffffffffffffff82169050919050565b6000610e4f82610e24565b9050919050565b610e5f81610e44565b82525050565b6000602082019050610e7a6000830184610e56565b92915050565b600080fd5b610e8e81610cff565b8114610e9957600080fd5b50565b600081359050610eab81610e85565b92915050565b600060208284031215610ec757610ec6610e80565b5b6000610ed584828501610e9c565b91505092915050565b610ee781610e44565b8114610ef257600080fd5b50565b600081359050610f0481610ede565b92915050565b600060208284031215610f2057610f1f610e80565b5b6000610f2e84828501610ef5565b91505092915050565b6000819050919050565b6000610f5c610f57610f5284610e24565b610f37565b610e24565b9050919050565b6000610f6e82610f41565b9050919050565b6000610f8082610f63565b9050919050565b610f9081610f75565b82525050565b6000602082019050610fab6000830184610f87565b92915050565b600082825260208201905092915050565b7f796f7520617265206c6f73657200000000000000000000000000000000000000600082015250565b6000610ff8600d83610fb1565b915061100382610fc2565b602082019050919050565b6000602082019050818103600083015261102781610feb565b9050919050565b60006040820190506110436000830185610e56565b6110506020830184610dfa565b9392505050565b60008115159050919050565b61106c81611057565b811461107757600080fd5b50565b60008151905061108981611063565b92915050565b6000602082840312156110a5576110a4610e80565b5b60006110b38482850161107a565b91505092915050565b7f67616d65206f7665720000000000000000000000000000000000000000000000600082015250565b60006110f2600983610fb1565b91506110fd826110bc565b602082019050919050565b60006020820190508181036000830152611121816110e5565b9050919050565b7f616c726561647920626574000000000000000000000000000000000000000000600082015250565b600061115e600b83610fb1565b915061116982611128565b602082019050919050565b6000602082019050818103600083015261118d81611151565b9050919050565b7f62657420616d6f756e74206d75737420696e2072616e67650000000000000000600082015250565b60006111ca601883610fb1565b91506111d582611194565b602082019050919050565b600060208201905081810360008301526111f9816111bd565b9050919050565b60006060820190506112156000830186610e56565b6112226020830185610e56565b61122f6040830184610dfa565b949350505050565b7f4e487b7100000000000000000000000000000000000000000000000000000000600052601160045260246000fd5b600061127182610cff565b915061127c83610cff565b925082820190508082111561129457611293611237565b5b92915050565b7f4e487b7100000000000000000000000000000000000000000000000000000000600052603260045260246000fd5b60006112d482610cff565b91507fffffffffffffffffffffffffffffffffffffffffffffffffffffffffffffffff820361130657611305611237565b5b600182019050919050565b7f4e487b7100000000000000000000000000000000000000000000000000000000600052601260045260246000fd5b600061134b82610cff565b915061135683610cff565b92508261136657611365611311565b5b828206905092915050565b7f4f776e61626c653a206e6577206f776e657220697320746865207a65726f206160008201527f6464726573730000000000000000000000000000000000000000000000000000602082015250565b60006113cd602683610fb1565b91506113d882611371565b604082019050919050565b600060208201905081810360008301526113fc816113c0565b9050919050565b7f4f776e61626c653a2063616c6c6572206973206e6f7420746865206f776e6572600082015250565b6000611439602083610fb1565b915061144482611403565b602082019050919050565b600060208201905081810360008301526114688161142c565b9050919050565b600061147a82610cff565b915061148583610cff565b925082820390508181111561149d5761149c611237565b5b92915050565b7f4e487b7100000000000000000000000000000000000000000000000000000000600052603160045260246000fd5b6000819050919050565b6000819050919050565b6114f76114f2826114d2565b6114dc565b82525050565b6000819050919050565b61151861151382610cff565b6114fd565b82525050565b600061152a82856114e6565b60208201915061153a8284611507565b602082019150819050939250505056fea2646970667358221220274b3147130f321ebc494893c4833107b5f4a8036a7bc2ea745e57693dbe651164736f6c63430008130033",
  "immutableReferences": {},
  "source": "// SPDX-License-Identifier: MIT\npragma solidity ^0.8.19;\n\nimport \"@openzeppelin/contracts/token/ERC20/IERC20.sol\";\nimport \"@openzeppelin/contracts/access/Ownable.sol\";\nimport \"@openzeppelin/contracts/utils/Counters.sol\";\nimport \"./TableLib.sol\";\n\ncontract ThreeCards is Ownable {\n    using Counters for Counters.Counter;\n    using TableLib for *;\n\n    IERC20 public token;\n\n    uint256 public pot = 0;\n    uint256 public minBet;\n    uint256 public maxBet;\n\n    uint256[] private cards;\n\n    address winner;\n\n    Counters.Counter private _idx;\n    mapping(uint256 => address) private index;\n    mapping(address => Holder) private addressHoldersMap;\n\n    constructor(IERC20 _token, uint256 _minBet, uint256 _maxBet) {\n        token = _token;\n        minBet = _minBet;\n        maxBet = _maxBet;\n        TableLib.freshUnbox(cards);\n    }\n\n    modifier canBet(uint256 _amount) {\n        require(winner == address(0), \"game over\");\n        require(addressHoldersMap[msg.sender].betAmount == 0, \"already bet\");\n        require(\n            _amount >= minBet && _amount <= maxBet,\n            \"bet amount must in range\"\n        );\n        _;\n    }\n\n    function buyIn(uint256 _amount) public canBet(_amount) {\n        token.transferFrom(msg.sender, address(this), _amount);\n        Holder storage holder = addressHoldersMap[msg.sender];\n        /** Add data */\n        holder.betAmount += _amount;\n        TableLib.pickCards(cards, holder, 3);\n        /** Indexing */\n        index[_idx.current()] = msg.sender;\n        _idx.increment();\n        /** Increase pot amount */\n        pot += _amount;\n    }\n\n    function getBet() public view returns (Holder memory) {\n        return addressHoldersMap[msg.sender];\n    }\n\n    function showOff() public onlyOwner {\n        uint256 max = 0;\n        address w;\n        for (uint256 i = 0; i < _idx.current(); i++) {\n            Holder memory holder = addressHoldersMap[index[i]];\n            uint256 sum = 0;\n            for (uint256 j = 0; j < holder.cards.length; j++) {\n                if (holder.cards[j] > 10) {\n                    sum += 10;\n                } else {\n                    sum += holder.cards[j];\n                }\n            }\n            sum %= 10;\n            if (sum > max) {\n                max = sum;\n                w = index[i];\n            }\n        }\n        winner = w;\n    }\n\n    modifier canWithdraw() {\n        require(msg.sender == winner, \"you are loser\");\n        _;\n    }\n\n    function withdraw() public canWithdraw {\n        token.transfer(msg.sender, pot);\n    }\n}\n",
  "sourcePath": "/Users/account/levanthanh-ptit/eth-truffle-practice/contracts/ThreeCards.sol",
  "compiler": {
    "name": "solc",
    "version": "0.8.19+commit.7dd6d404.Emscripten.clang"
  },
  "schemaVersion": "3.4.12",
  "updatedAt": "2023-03-14T07:49:17.030Z",
  "devdoc": {
    "kind": "dev",
    "methods": {
      "owner()": {
        "details": "Returns the address of the current owner."
      },
      "renounceOwnership()": {
        "details": "Leaves the contract without owner. It will not be possible to call `onlyOwner` functions anymore. Can only be called by the current owner. NOTE: Renouncing ownership will leave the contract without an owner, thereby removing any functionality that is only available to the owner."
      },
      "transferOwnership(address)": {
        "details": "Transfers ownership of the contract to a new account (`newOwner`). Can only be called by the current owner."
      }
    },
    "version": 1
  },
  "userdoc": {
    "kind": "user",
    "methods": {},
    "version": 1
  }
}