{
  "contractName": "ThreeCards",
  "abi": [
    {
      "anonymous": false,
      "inputs": [
        {
          "indexed": false,
          "internalType": "uint256",
          "name": "gameId",
          "type": "uint256"
        },
        {
          "indexed": false,
          "internalType": "address",
          "name": "dealer",
          "type": "address"
        }
      ],
      "name": "GameCreated",
      "type": "event"
    },
    {
      "inputs": [
        {
          "internalType": "contract IERC20",
          "name": "_token",
          "type": "address"
        },
        {
          "internalType": "uint256",
          "name": "_minBet",
          "type": "uint256"
        },
        {
          "internalType": "uint256",
          "name": "_maxBet",
          "type": "uint256"
        }
      ],
      "name": "initGame",
      "outputs": [],
      "stateMutability": "nonpayable",
      "type": "function"
    },
    {
      "inputs": [
        {
          "internalType": "uint256",
          "name": "_gameId",
          "type": "uint256"
        },
        {
          "internalType": "uint256",
          "name": "_amount",
          "type": "uint256"
        }
      ],
      "name": "buyIn",
      "outputs": [],
      "stateMutability": "nonpayable",
      "type": "function"
    },
    {
      "inputs": [
        {
          "internalType": "uint256",
          "name": "_gameId",
          "type": "uint256"
        }
      ],
      "name": "getGameData",
      "outputs": [
        {
          "components": [
            {
              "internalType": "address",
              "name": "dealer",
              "type": "address"
            },
            {
              "internalType": "contract IERC20",
              "name": "token",
              "type": "address"
            },
            {
              "internalType": "uint256",
              "name": "pot",
              "type": "uint256"
            },
            {
              "internalType": "uint256",
              "name": "minBet",
              "type": "uint256"
            },
            {
              "internalType": "uint256",
              "name": "maxBet",
              "type": "uint256"
            },
            {
              "internalType": "address[]",
              "name": "winners",
              "type": "address[]"
            }
          ],
          "internalType": "struct ThreeCards.GameData",
          "name": "",
          "type": "tuple"
        }
      ],
      "stateMutability": "view",
      "type": "function",
      "constant": true
    },
    {
      "inputs": [
        {
          "internalType": "uint256",
          "name": "_gameId",
          "type": "uint256"
        }
      ],
      "name": "getBet",
      "outputs": [
        {
          "components": [
            {
              "internalType": "uint256[]",
              "name": "cards",
              "type": "uint256[]"
            },
            {
              "internalType": "uint256",
              "name": "betAmount",
              "type": "uint256"
            }
          ],
          "internalType": "struct Holder",
          "name": "",
          "type": "tuple"
        }
      ],
      "stateMutability": "view",
      "type": "function",
      "constant": true
    },
    {
      "inputs": [
        {
          "internalType": "uint256",
          "name": "_gameId",
          "type": "uint256"
        }
      ],
      "name": "showOff",
      "outputs": [],
      "stateMutability": "nonpayable",
      "type": "function"
    },
    {
      "inputs": [
        {
          "internalType": "uint256",
          "name": "_gameId",
          "type": "uint256"
        }
      ],
      "name": "withdraw",
      "outputs": [],
      "stateMutability": "nonpayable",
      "type": "function"
    }
  ],
  "bytecode": "0x6080604052600160005534801561001557600080fd5b50611bcf806100256000396000f3fe608060405234801561001057600080fd5b50600436106100625760003560e01c8063061e494f146100675780632e1a7d4d146100975780632e50467e146100b35780635cf91dff146100cf578063993602ef146100eb578063b6a6566514610107575b600080fd5b610081600480360381019061007c919061116a565b610137565b60405161008e9190611292565b60405180910390f35b6100b160048036038101906100ac919061116a565b610252565b005b6100cd60048036038101906100c891906112b4565b610458565b005b6100e960048036038101906100e49190611364565b610793565b005b6101056004803603810190610100919061116a565b6108d1565b005b610121600480360381019061011c919061116a565b610d23565b60405161012e919061155d565b60405180910390f35b61013f6110b3565b816000548110610184576040517f08c379a000000000000000000000000000000000000000000000000000000000815260040161017b906115dc565b60405180910390fd5b60006001600085815260200190815260200160002090508060090160003373ffffffffffffffffffffffffffffffffffffffff1673ffffffffffffffffffffffffffffffffffffffff1681526020019081526020016000206040518060400160405290816000820180548060200260200160405190810160405280929190818152602001828054801561023657602002820191906000526020600020905b815481526020019060010190808311610222575b5050505050815260200160018201548152505092505050919050565b806000548110610297576040517f08c379a000000000000000000000000000000000000000000000000000000000815260040161028e906115dc565b60405180910390fd5b8160006001600083815260200190815260200160002090506000805b8260070180549050811015610351573373ffffffffffffffffffffffffffffffffffffffff168360070182815481106102ef576102ee6115fc565b5b9060005260206000200160009054906101000a900473ffffffffffffffffffffffffffffffffffffffff1673ffffffffffffffffffffffffffffffffffffffff160361033e5760019150610351565b80806103499061165a565b9150506102b3565b5080610392576040517f08c379a0000000000000000000000000000000000000000000000000000000008152600401610389906116ee565b60405180910390fd5b60006001600087815260200190815260200160002090508060010160009054906101000a900473ffffffffffffffffffffffffffffffffffffffff1673ffffffffffffffffffffffffffffffffffffffff1663a9059cbb3383600301546040518363ffffffff1660e01b815260040161040c92919061172c565b6020604051808303816000875af115801561042b573d6000803e3d6000fd5b505050506040513d601f19601f8201168201806040525081019061044f919061178d565b50505050505050565b81600054811061049d576040517f08c379a0000000000000000000000000000000000000000000000000000000008152600401610494906115dc565b60405180910390fd5b828260006001600084815260200190815260200160002090506000816007018054905014610500576040517f08c379a00000000000000000000000000000000000000000000000000000000081526004016104f790611806565b60405180910390fd5b60008160090160003373ffffffffffffffffffffffffffffffffffffffff1673ffffffffffffffffffffffffffffffffffffffff1681526020019081526020016000206001015414610587576040517f08c379a000000000000000000000000000000000000000000000000000000000815260040161057e90611872565b60405180910390fd5b8060040154821015801561059f575080600501548211155b6105de576040517f08c379a00000000000000000000000000000000000000000000000000000000081526004016105d5906118de565b60405180910390fd5b60006001600088815260200190815260200160002090508060010160009054906101000a900473ffffffffffffffffffffffffffffffffffffffff1673ffffffffffffffffffffffffffffffffffffffff166323b872dd3330896040518463ffffffff1660e01b8152600401610656939291906118fe565b6020604051808303816000875af1158015610675573d6000803e3d6000fd5b505050506040513d601f19601f82011682018060405250810190610699919061178d565b5060008160090160003373ffffffffffffffffffffffffffffffffffffffff1673ffffffffffffffffffffffffffffffffffffffff1681526020019081526020016000209050868160010160008282546106f39190611935565b9250508190555061070982600601826003610ec5565b81600801339080600181540180825580915050600190039060005260206000200160009091909190916101000a81548173ffffffffffffffffffffffffffffffffffffffff021916908373ffffffffffffffffffffffffffffffffffffffff160217905550868260020160008282546107829190611935565b925050819055505050505050505050565b6000805490506000600160008381526020019081526020016000209050338160000160006101000a81548173ffffffffffffffffffffffffffffffffffffffff021916908373ffffffffffffffffffffffffffffffffffffffff160217905550848160010160006101000a81548173ffffffffffffffffffffffffffffffffffffffff021916908373ffffffffffffffffffffffffffffffffffffffff16021790555083816004018190555082816005018190555061085481600601610fb9565b60016000808282546108669190611935565b925050819055507fc3e0f84839dc888c892a013d10c8f9d6dc05a21a879d0ce468ca558013e9121c828260000160009054906101000a900473ffffffffffffffffffffffffffffffffffffffff166040516108c2929190611969565b60405180910390a15050505050565b806000548110610916576040517f08c379a000000000000000000000000000000000000000000000000000000000815260040161090d906115dc565b60405180910390fd5b8160006001600083815260200190815260200160002090503373ffffffffffffffffffffffffffffffffffffffff168160000160009054906101000a900473ffffffffffffffffffffffffffffffffffffffff1673ffffffffffffffffffffffffffffffffffffffff16146109c0576040517f08c379a00000000000000000000000000000000000000000000000000000000081526004016109b7906119de565b60405180910390fd5b6000600160008681526020019081526020016000209050600080826008018054905067ffffffffffffffff8111156109fb576109fa6119fe565b5b604051908082528060200260200182016040528015610a295781602001602082028036833780820191505090505b50905060005b8360080180549050811015610c0d576000846009016000866008018481548110610a5c57610a5b6115fc565b5b9060005260206000200160009054906101000a900473ffffffffffffffffffffffffffffffffffffffff1673ffffffffffffffffffffffffffffffffffffffff1673ffffffffffffffffffffffffffffffffffffffff16815260200190815260200160002060405180604001604052908160008201805480602002602001604051908101604052809291908181526020018280548015610b1b57602002820191906000526020600020905b815481526020019060010190808311610b07575b5050505050815260200160018201548152505090506000805b826000015151811015610bbc57600a83600001518281518110610b5a57610b596115fc565b5b60200260200101511115610b7c57600a82610b759190611935565b9150610ba9565b82600001518181518110610b9357610b926115fc565b5b602002602001015182610ba69190611935565b91505b8080610bb49061165a565b915050610b34565b50600a81610bca9190611a5c565b905080848481518110610be057610bdf6115fc565b5b60200260200101818152505084811115610bf8578094505b50508080610c059061165a565b915050610a2f565b5060005b8360080180549050811015610cfa5782828281518110610c3457610c336115fc565b5b602002602001015103610ce75783600701846008018281548110610c5b57610c5a6115fc565b5b9060005260206000200160009054906101000a900473ffffffffffffffffffffffffffffffffffffffff169080600181540180825580915050600190039060005260206000200160009091909190916101000a81548173ffffffffffffffffffffffffffffffffffffffff021916908373ffffffffffffffffffffffffffffffffffffffff1602179055505b8080610cf29061165a565b915050610c11565b5082600701805490508360020154610d129190611a8d565b836003018190555050505050505050565b610d2b6110cd565b816000548110610d70576040517f08c379a0000000000000000000000000000000000000000000000000000000008152600401610d67906115dc565b60405180910390fd5b60006001600085815260200190815260200160002090506040518060c001604052808260000160009054906101000a900473ffffffffffffffffffffffffffffffffffffffff1673ffffffffffffffffffffffffffffffffffffffff1681526020018260010160009054906101000a900473ffffffffffffffffffffffffffffffffffffffff1673ffffffffffffffffffffffffffffffffffffffff16815260200182600201548152602001826004015481526020018260050154815260200182600701805480602002602001604051908101604052809291908181526020018280548015610eb457602002820191906000526020600020905b8160009054906101000a900473ffffffffffffffffffffffffffffffffffffffff1673ffffffffffffffffffffffffffffffffffffffff1681526020019060010190808311610e6a575b505050505081525092505050919050565b60005b81811015610fb3576000610edf8580549050611033565b905083600001858281548110610ef857610ef76115fc565b5b906000526020600020015490806001815401808255809150506001900390600052602060002001600090919091909150558460018680549050610f3b9190611abe565b81548110610f4c57610f4b6115fc565b5b9060005260206000200154858281548110610f6a57610f696115fc565b5b906000526020600020018190555084805480610f8957610f88611af2565b5b60019003818190600052602060002001600090559055508080610fab9061165a565b915050610ec8565b50505050565b6000818054905014610fca57600080fd5b60005b603481101561102f5760006001600d83610fe79190611a5c565b610ff19190611935565b9050828190806001815401808255809150506001900390600052602060002001600090919091909150555080806110279061165a565b915050610fcd565b5050565b60008060644344426110459190611935565b61104f9190611935565b6110599190611a5c565b90506001836110689190611935565b6001436110759190611abe565b4082604051602001611088929190611b6d565b6040516020818303038152906040528051906020012060001c6110ab9190611a5c565b915050919050565b604051806040016040528060608152602001600081525090565b6040518060c00160405280600073ffffffffffffffffffffffffffffffffffffffff168152602001600073ffffffffffffffffffffffffffffffffffffffff168152602001600081526020016000815260200160008152602001606081525090565b600080fd5b6000819050919050565b61114781611134565b811461115257600080fd5b50565b6000813590506111648161113e565b92915050565b6000602082840312156111805761117f61112f565b5b600061118e84828501611155565b91505092915050565b600081519050919050565b600082825260208201905092915050565b6000819050602082019050919050565b6111cc81611134565b82525050565b60006111de83836111c3565b60208301905092915050565b6000602082019050919050565b600061120282611197565b61120c81856111a2565b9350611217836111b3565b8060005b8381101561124857815161122f88826111d2565b975061123a836111ea565b92505060018101905061121b565b5085935050505092915050565b6000604083016000830151848203600086015261127282826111f7565b915050602083015161128760208601826111c3565b508091505092915050565b600060208201905081810360008301526112ac8184611255565b905092915050565b600080604083850312156112cb576112ca61112f565b5b60006112d985828601611155565b92505060206112ea85828601611155565b9150509250929050565b600073ffffffffffffffffffffffffffffffffffffffff82169050919050565b600061131f826112f4565b9050919050565b600061133182611314565b9050919050565b61134181611326565b811461134c57600080fd5b50565b60008135905061135e81611338565b92915050565b60008060006060848603121561137d5761137c61112f565b5b600061138b8682870161134f565b935050602061139c86828701611155565b92505060406113ad86828701611155565b9150509250925092565b6113c081611314565b82525050565b6000819050919050565b60006113eb6113e66113e1846112f4565b6113c6565b6112f4565b9050919050565b60006113fd826113d0565b9050919050565b600061140f826113f2565b9050919050565b61141f81611404565b82525050565b600081519050919050565b600082825260208201905092915050565b6000819050602082019050919050565b600061145d83836113b7565b60208301905092915050565b6000602082019050919050565b600061148182611425565b61148b8185611430565b935061149683611441565b8060005b838110156114c75781516114ae8882611451565b97506114b983611469565b92505060018101905061149a565b5085935050505092915050565b600060c0830160008301516114ec60008601826113b7565b5060208301516114ff6020860182611416565b50604083015161151260408601826111c3565b50606083015161152560608601826111c3565b50608083015161153860808601826111c3565b5060a083015184820360a08601526115508282611476565b9150508091505092915050565b6000602082019050818103600083015261157781846114d4565b905092915050565b600082825260208201905092915050565b7f67616d65206e6f7420666f756e64000000000000000000000000000000000000600082015250565b60006115c6600e8361157f565b91506115d182611590565b602082019050919050565b600060208201905081810360008301526115f5816115b9565b9050919050565b7f4e487b7100000000000000000000000000000000000000000000000000000000600052603260045260246000fd5b7f4e487b7100000000000000000000000000000000000000000000000000000000600052601160045260246000fd5b600061166582611134565b91507fffffffffffffffffffffffffffffffffffffffffffffffffffffffffffffffff82036116975761169661162b565b5b600182019050919050565b7f796f7520617265206c6f73657200000000000000000000000000000000000000600082015250565b60006116d8600d8361157f565b91506116e3826116a2565b602082019050919050565b60006020820190508181036000830152611707816116cb565b9050919050565b61171781611314565b82525050565b61172681611134565b82525050565b6000604082019050611741600083018561170e565b61174e602083018461171d565b9392505050565b60008115159050919050565b61176a81611755565b811461177557600080fd5b50565b60008151905061178781611761565b92915050565b6000602082840312156117a3576117a261112f565b5b60006117b184828501611778565b91505092915050565b7f67616d65206f7665720000000000000000000000000000000000000000000000600082015250565b60006117f060098361157f565b91506117fb826117ba565b602082019050919050565b6000602082019050818103600083015261181f816117e3565b9050919050565b7f616c726561647920626574000000000000000000000000000000000000000000600082015250565b600061185c600b8361157f565b915061186782611826565b602082019050919050565b6000602082019050818103600083015261188b8161184f565b9050919050565b7f62657420616d6f756e74206d75737420696e2072616e67650000000000000000600082015250565b60006118c860188361157f565b91506118d382611892565b602082019050919050565b600060208201905081810360008301526118f7816118bb565b9050919050565b6000606082019050611913600083018661170e565b611920602083018561170e565b61192d604083018461171d565b949350505050565b600061194082611134565b915061194b83611134565b92508282019050808211156119635761196261162b565b5b92915050565b600060408201905061197e600083018561171d565b61198b602083018461170e565b9392505050565b7f63616e6e6f742073686f77206f66660000000000000000000000000000000000600082015250565b60006119c8600f8361157f565b91506119d382611992565b602082019050919050565b600060208201905081810360008301526119f7816119bb565b9050919050565b7f4e487b7100000000000000000000000000000000000000000000000000000000600052604160045260246000fd5b7f4e487b7100000000000000000000000000000000000000000000000000000000600052601260045260246000fd5b6000611a6782611134565b9150611a7283611134565b925082611a8257611a81611a2d565b5b828206905092915050565b6000611a9882611134565b9150611aa383611134565b925082611ab357611ab2611a2d565b5b828204905092915050565b6000611ac982611134565b9150611ad483611134565b9250828203905081811115611aec57611aeb61162b565b5b92915050565b7f4e487b7100000000000000000000000000000000000000000000000000000000600052603160045260246000fd5b6000819050919050565b6000819050919050565b611b46611b4182611b21565b611b2b565b82525050565b6000819050919050565b611b67611b6282611134565b611b4c565b82525050565b6000611b798285611b35565b602082019150611b898284611b56565b602082019150819050939250505056fea264697066735822122037486ab2dbc9e63719c1239e1ab3a566964dbe6c5597fa624774895f0b256f0a64736f6c63430008130033",
  "immutableReferences": {},
  "source": "// SPDX-License-Identifier: MIT\npragma solidity ^0.8.19;\n\nimport \"@openzeppelin/contracts/token/ERC20/IERC20.sol\";\nimport \"@openzeppelin/contracts/utils/Strings.sol\";\n\nimport \"./TableLib.sol\";\n\ncontract ThreeCards {\n    using TableLib for *;\n\n    struct GameData {\n        address dealer;\n        IERC20 token;\n        uint256 pot;\n        uint256 minBet;\n        uint256 maxBet;\n        address[] winners;\n    }\n\n    struct Game {\n        address dealer;\n        IERC20 token;\n        uint256 pot;\n        uint256 wonAmount;\n        uint256 minBet;\n        uint256 maxBet;\n        uint256[] cards;\n        address[] winners;\n        address[] holderIdxs;\n        mapping(address => Holder) addressHolders;\n    }\n\n    uint256 private gameIdx = 1;\n    mapping(uint256 => Game) private games;\n\n    event GameCreated(uint256 gameId, address dealer);\n\n    modifier gameExists(uint256 _gameId) {\n        require(_gameId < gameIdx, \"game not found\");\n        _;\n    }\n\n    modifier canBet(uint256 _gameId, uint256 _amount) {\n        Game storage game = games[_gameId];\n        require(game.winners.length == 0, \"game over\");\n        require(game.addressHolders[msg.sender].betAmount == 0, \"already bet\");\n        require(\n            _amount >= game.minBet && _amount <= game.maxBet,\n            \"bet amount must in range\"\n        );\n        _;\n    }\n\n    modifier onlyDealer(uint256 _gameId) {\n        Game storage game = games[_gameId];\n        require(game.dealer == msg.sender, \"cannot show off\");\n        _;\n    }\n\n    function initGame(IERC20 _token, uint256 _minBet, uint256 _maxBet) public {\n        /** Take current idx */\n        uint256 gameId = gameIdx;\n        /** Set data */\n        Game storage game = games[gameId];\n        game.dealer = msg.sender;\n        game.token = _token;\n        game.minBet = _minBet;\n        game.maxBet = _maxBet;\n        TableLib.freshUnbox(game.cards);\n        /** increase idx */\n        gameIdx += 1;\n        /** emit event */\n        emit GameCreated(gameId, game.dealer);\n    }\n\n    function buyIn(\n        uint256 _gameId,\n        uint256 _amount\n    ) public gameExists(_gameId) canBet(_gameId, _amount) {\n        Game storage game = games[_gameId];\n        game.token.transferFrom(msg.sender, address(this), _amount);\n        Holder storage holder = game.addressHolders[msg.sender];\n        /** Add data */\n        holder.betAmount += _amount;\n        TableLib.pickCards(game.cards, holder, 3);\n        /** Indexing */\n        game.holderIdxs.push(msg.sender);\n        /** Increase pot amount */\n        game.pot += _amount;\n    }\n\n    function getGameData(\n        uint256 _gameId\n    ) public view gameExists(_gameId) returns (GameData memory) {\n        Game storage game = games[_gameId];\n        return\n            GameData({\n                dealer: game.dealer,\n                token: game.token,\n                pot: game.pot,\n                minBet: game.minBet,\n                maxBet: game.maxBet,\n                winners: game.winners\n            });\n    }\n\n    function getBet(\n        uint256 _gameId\n    ) public view gameExists(_gameId) returns (Holder memory) {\n        Game storage game = games[_gameId];\n        return game.addressHolders[msg.sender];\n    }\n\n    function showOff(\n        uint256 _gameId\n    ) public gameExists(_gameId) onlyDealer(_gameId) {\n        Game storage game = games[_gameId];\n        uint256 max = 0;\n        uint256[] memory pointsIdxs = new uint256[](game.holderIdxs.length);\n        for (uint256 i = 0; i < game.holderIdxs.length; i++) {\n            Holder memory holder = game.addressHolders[game.holderIdxs[i]];\n            /** Calculate sum */\n            uint256 sum = 0;\n            for (uint256 j = 0; j < holder.cards.length; j++) {\n                if (holder.cards[j] > 10) {\n                    sum += 10;\n                } else {\n                    sum += holder.cards[j];\n                }\n            }\n            sum %= 10;\n            /** temporaly store its */\n            pointsIdxs[i] = sum;\n            /** check the max */\n            if (sum > max) {\n                max = sum;\n            }\n        }\n        /** filter winners */\n        for (uint i = 0; i < game.holderIdxs.length; i++) {\n            if (pointsIdxs[i] == max) {\n                game.winners.push(game.holderIdxs[i]);\n            }\n        }\n        game.wonAmount = game.pot / game.winners.length;\n    }\n\n    modifier canWithdraw(uint256 _gameId) {\n        Game storage game = games[_gameId];\n        bool isWinner = false;\n        for (uint i = 0; i < game.winners.length; i++) {\n            if (game.winners[i] == msg.sender) {\n                isWinner = true;\n                break;\n            }\n        }\n        require(isWinner, \"you are loser\");\n        _;\n    }\n\n    function withdraw(\n        uint256 _gameId\n    ) public gameExists(_gameId) canWithdraw(_gameId) {\n        Game storage game = games[_gameId];\n        game.token.transfer(msg.sender, game.wonAmount);\n    }\n}\n",
  "sourcePath": "/Users/account/levanthanh-ptit/eth-truffle-practice/contracts/ThreeCards.sol",
  "compiler": {
    "name": "solc",
    "version": "0.8.19+commit.7dd6d404.Emscripten.clang"
  },
  "schemaVersion": "3.4.12",
  "updatedAt": "2023-03-15T03:08:37.527Z",
  "networkType": "ethereum",
  "devdoc": {
    "kind": "dev",
    "methods": {},
    "version": 1
  },
  "userdoc": {
    "kind": "user",
    "methods": {},
    "version": 1
  }
}